{
  "_format": "hh-sol-artifact-1",
  "contractName": "TokenManagerERC1155",
  "sourceName": "contracts/schain/TokenManagers/TokenManagerERC1155.sol",
  "abi": [
    {
      "anonymous": false,
      "inputs": [
        {
          "indexed": false,
          "internalType": "address",
          "name": "oldValue",
          "type": "address"
        },
        {
          "indexed": false,
          "internalType": "address",
          "name": "newValue",
          "type": "address"
        }
      ],
      "name": "DepositBoxWasChanged",
      "type": "event"
    },
    {
      "anonymous": false,
      "inputs": [
        {
          "indexed": true,
          "internalType": "bytes32",
          "name": "chainHash",
          "type": "bytes32"
        },
        {
          "indexed": true,
          "internalType": "address",
          "name": "erc1155OnMainnet",
          "type": "address"
        },
        {
          "indexed": true,
          "internalType": "address",
          "name": "erc1155OnSchain",
          "type": "address"
        }
      ],
      "name": "ERC1155TokenAdded",
      "type": "event"
    },
    {
      "anonymous": false,
      "inputs": [
        {
          "indexed": true,
          "internalType": "bytes32",
          "name": "chainHash",
          "type": "bytes32"
        },
        {
          "indexed": true,
          "internalType": "address",
          "name": "erc1155OnMainnet",
          "type": "address"
        },
        {
          "indexed": true,
          "internalType": "address",
          "name": "erc1155OnSchain",
          "type": "address"
        }
      ],
      "name": "ERC1155TokenCreated",
      "type": "event"
    },
    {
      "anonymous": false,
      "inputs": [
        {
          "indexed": true,
          "internalType": "bytes32",
          "name": "chainHash",
          "type": "bytes32"
        },
        {
          "indexed": true,
          "internalType": "address",
          "name": "contractOnMainnet",
          "type": "address"
        },
        {
          "indexed": false,
          "internalType": "uint256[]",
          "name": "ids",
          "type": "uint256[]"
        },
        {
          "indexed": false,
          "internalType": "uint256[]",
          "name": "amounts",
          "type": "uint256[]"
        }
      ],
      "name": "ERC1155TokenReady",
      "type": "event"
    },
    {
      "anonymous": false,
      "inputs": [
        {
          "indexed": true,
          "internalType": "bytes32",
          "name": "chainHash",
          "type": "bytes32"
        },
        {
          "indexed": true,
          "internalType": "address",
          "name": "erc1155OnMainnet",
          "type": "address"
        },
        {
          "indexed": true,
          "internalType": "address",
          "name": "erc1155OnSchain",
          "type": "address"
        },
        {
          "indexed": false,
          "internalType": "uint256[]",
          "name": "ids",
          "type": "uint256[]"
        },
        {
          "indexed": false,
          "internalType": "uint256[]",
          "name": "amounts",
          "type": "uint256[]"
        }
      ],
      "name": "ERC1155TokenReceived",
      "type": "event"
    },
    {
      "anonymous": false,
      "inputs": [
        {
          "indexed": true,
          "internalType": "bytes32",
          "name": "role",
          "type": "bytes32"
        },
        {
          "indexed": true,
          "internalType": "bytes32",
          "name": "previousAdminRole",
          "type": "bytes32"
        },
        {
          "indexed": true,
          "internalType": "bytes32",
          "name": "newAdminRole",
          "type": "bytes32"
        }
      ],
      "name": "RoleAdminChanged",
      "type": "event"
    },
    {
      "anonymous": false,
      "inputs": [
        {
          "indexed": true,
          "internalType": "bytes32",
          "name": "role",
          "type": "bytes32"
        },
        {
          "indexed": true,
          "internalType": "address",
          "name": "account",
          "type": "address"
        },
        {
          "indexed": true,
          "internalType": "address",
          "name": "sender",
          "type": "address"
        }
      ],
      "name": "RoleGranted",
      "type": "event"
    },
    {
      "anonymous": false,
      "inputs": [
        {
          "indexed": true,
          "internalType": "bytes32",
          "name": "role",
          "type": "bytes32"
        },
        {
          "indexed": true,
          "internalType": "address",
          "name": "account",
          "type": "address"
        },
        {
          "indexed": true,
          "internalType": "address",
          "name": "sender",
          "type": "address"
        }
      ],
      "name": "RoleRevoked",
      "type": "event"
    },
    {
      "inputs": [],
      "name": "AUTOMATIC_DEPLOY_ROLE",
      "outputs": [
        {
          "internalType": "bytes32",
          "name": "",
          "type": "bytes32"
        }
      ],
      "stateMutability": "view",
      "type": "function"
    },
    {
      "inputs": [],
      "name": "DEFAULT_ADMIN_ROLE",
      "outputs": [
        {
          "internalType": "bytes32",
          "name": "",
          "type": "bytes32"
        }
      ],
      "stateMutability": "view",
      "type": "function"
    },
    {
      "inputs": [],
      "name": "MAINNET_HASH",
      "outputs": [
        {
          "internalType": "bytes32",
          "name": "",
          "type": "bytes32"
        }
      ],
      "stateMutability": "view",
      "type": "function"
    },
    {
      "inputs": [],
      "name": "MAINNET_NAME",
      "outputs": [
        {
          "internalType": "string",
          "name": "",
          "type": "string"
        }
      ],
      "stateMutability": "view",
      "type": "function"
    },
    {
      "inputs": [],
      "name": "TOKEN_REGISTRAR_ROLE",
      "outputs": [
        {
          "internalType": "bytes32",
          "name": "",
          "type": "bytes32"
        }
      ],
      "stateMutability": "view",
      "type": "function"
    },
    {
      "inputs": [
        {
          "internalType": "string",
          "name": "targetChainName",
          "type": "string"
        },
        {
          "internalType": "address",
          "name": "erc1155OnMainnet",
          "type": "address"
        },
        {
          "internalType": "address",
          "name": "erc1155OnSchain",
          "type": "address"
        }
      ],
      "name": "addERC1155TokenByOwner",
      "outputs": [],
      "stateMutability": "nonpayable",
      "type": "function"
    },
    {
      "inputs": [
        {
          "internalType": "string",
          "name": "schainName",
          "type": "string"
        },
        {
          "internalType": "address",
          "name": "newTokenManager",
          "type": "address"
        }
      ],
      "name": "addTokenManager",
      "outputs": [],
      "stateMutability": "nonpayable",
      "type": "function"
    },
    {
      "inputs": [
        {
          "internalType": "contract ERC1155OnChain",
          "name": "",
          "type": "address"
        }
      ],
      "name": "addedClones",
      "outputs": [
        {
          "internalType": "bool",
          "name": "",
          "type": "bool"
        }
      ],
      "stateMutability": "view",
      "type": "function"
    },
    {
      "inputs": [],
      "name": "automaticDeploy",
      "outputs": [
        {
          "internalType": "bool",
          "name": "",
          "type": "bool"
        }
      ],
      "stateMutability": "view",
      "type": "function"
    },
    {
      "inputs": [
        {
          "internalType": "address",
          "name": "newDepositBox",
          "type": "address"
        }
      ],
      "name": "changeDepositBoxAddress",
      "outputs": [],
      "stateMutability": "nonpayable",
      "type": "function"
    },
    {
      "inputs": [
        {
          "internalType": "bytes32",
          "name": "",
          "type": "bytes32"
        },
        {
          "internalType": "address",
          "name": "",
          "type": "address"
        }
      ],
      "name": "clonesErc1155",
      "outputs": [
        {
          "internalType": "contract ERC1155OnChain",
          "name": "",
          "type": "address"
        }
      ],
      "stateMutability": "view",
      "type": "function"
    },
    {
      "inputs": [],
      "name": "communityLocker",
      "outputs": [
        {
          "internalType": "contract ICommunityLocker",
          "name": "",
          "type": "address"
        }
      ],
      "stateMutability": "view",
      "type": "function"
    },
    {
      "inputs": [],
      "name": "depositBox",
      "outputs": [
        {
          "internalType": "address",
          "name": "",
          "type": "address"
        }
      ],
      "stateMutability": "view",
      "type": "function"
    },
    {
      "inputs": [
        {
          "internalType": "address",
          "name": "",
          "type": "address"
        }
      ],
      "name": "deprecatedClonesErc1155",
      "outputs": [
        {
          "internalType": "contract ERC1155OnChain",
          "name": "",
          "type": "address"
        }
      ],
      "stateMutability": "view",
      "type": "function"
    },
    {
      "inputs": [],
      "name": "disableAutomaticDeploy",
      "outputs": [],
      "stateMutability": "nonpayable",
      "type": "function"
    },
    {
      "inputs": [],
      "name": "enableAutomaticDeploy",
      "outputs": [],
      "stateMutability": "nonpayable",
      "type": "function"
    },
    {
      "inputs": [
        {
          "internalType": "address",
          "name": "contractOnMainnet",
          "type": "address"
        },
        {
          "internalType": "uint256",
          "name": "id",
          "type": "uint256"
        },
        {
          "internalType": "uint256",
          "name": "amount",
          "type": "uint256"
        }
      ],
      "name": "exitToMainERC1155",
      "outputs": [],
      "stateMutability": "nonpayable",
      "type": "function"
    },
    {
      "inputs": [
        {
          "internalType": "address",
          "name": "contractOnMainnet",
          "type": "address"
        },
        {
          "internalType": "uint256[]",
          "name": "ids",
          "type": "uint256[]"
        },
        {
          "internalType": "uint256[]",
          "name": "amounts",
          "type": "uint256[]"
        }
      ],
      "name": "exitToMainERC1155Batch",
      "outputs": [],
      "stateMutability": "nonpayable",
      "type": "function"
    },
    {
      "inputs": [
        {
          "internalType": "bytes32",
          "name": "role",
          "type": "bytes32"
        }
      ],
      "name": "getRoleAdmin",
      "outputs": [
        {
          "internalType": "bytes32",
          "name": "",
          "type": "bytes32"
        }
      ],
      "stateMutability": "view",
      "type": "function"
    },
    {
      "inputs": [
        {
          "internalType": "bytes32",
          "name": "role",
          "type": "bytes32"
        },
        {
          "internalType": "uint256",
          "name": "index",
          "type": "uint256"
        }
      ],
      "name": "getRoleMember",
      "outputs": [
        {
          "internalType": "address",
          "name": "",
          "type": "address"
        }
      ],
      "stateMutability": "view",
      "type": "function"
    },
    {
      "inputs": [
        {
          "internalType": "bytes32",
          "name": "role",
          "type": "bytes32"
        }
      ],
      "name": "getRoleMemberCount",
      "outputs": [
        {
          "internalType": "uint256",
          "name": "",
          "type": "uint256"
        }
      ],
      "stateMutability": "view",
      "type": "function"
    },
    {
      "inputs": [
        {
          "internalType": "bytes32",
          "name": "role",
          "type": "bytes32"
        },
        {
          "internalType": "address",
          "name": "account",
          "type": "address"
        }
      ],
      "name": "grantRole",
      "outputs": [],
      "stateMutability": "nonpayable",
      "type": "function"
    },
    {
      "inputs": [
        {
          "internalType": "bytes32",
          "name": "role",
          "type": "bytes32"
        },
        {
          "internalType": "address",
          "name": "account",
          "type": "address"
        }
      ],
      "name": "hasRole",
      "outputs": [
        {
          "internalType": "bool",
          "name": "",
          "type": "bool"
        }
      ],
      "stateMutability": "view",
      "type": "function"
    },
    {
      "inputs": [
        {
          "internalType": "string",
          "name": "schainName",
          "type": "string"
        }
      ],
      "name": "hasTokenManager",
      "outputs": [
        {
          "internalType": "bool",
          "name": "",
          "type": "bool"
        }
      ],
      "stateMutability": "view",
      "type": "function"
    },
    {
      "inputs": [
        {
          "internalType": "string",
          "name": "newChainName",
          "type": "string"
        },
        {
          "internalType": "contract IMessageProxyForSchain",
          "name": "newMessageProxy",
          "type": "address"
        },
        {
          "internalType": "contract ITokenManagerLinker",
          "name": "newIMALinker",
          "type": "address"
        },
        {
          "internalType": "contract ICommunityLocker",
          "name": "newCommunityLocker",
          "type": "address"
        },
        {
          "internalType": "address",
          "name": "newDepositBox",
          "type": "address"
        }
      ],
      "name": "initialize",
      "outputs": [],
      "stateMutability": "nonpayable",
      "type": "function"
    },
    {
      "inputs": [
        {
          "internalType": "string",
          "name": "newSchainName",
          "type": "string"
        },
        {
          "internalType": "contract IMessageProxyForSchain",
          "name": "newMessageProxy",
          "type": "address"
        },
        {
          "internalType": "contract ITokenManagerLinker",
          "name": "newIMALinker",
          "type": "address"
        },
        {
          "internalType": "contract ICommunityLocker",
          "name": "newCommunityLocker",
          "type": "address"
        },
        {
          "internalType": "address",
          "name": "newDepositBox",
          "type": "address"
        }
      ],
      "name": "initializeTokenManager",
      "outputs": [],
      "stateMutability": "nonpayable",
      "type": "function"
    },
    {
      "inputs": [],
      "name": "messageProxy",
      "outputs": [
        {
          "internalType": "contract IMessageProxyForSchain",
          "name": "",
          "type": "address"
        }
      ],
      "stateMutability": "view",
      "type": "function"
    },
    {
      "inputs": [
        {
          "internalType": "bytes32",
          "name": "fromChainHash",
          "type": "bytes32"
        },
        {
          "internalType": "address",
          "name": "sender",
          "type": "address"
        },
        {
          "internalType": "bytes",
          "name": "data",
          "type": "bytes"
        }
      ],
      "name": "postMessage",
      "outputs": [
        {
          "internalType": "address",
          "name": "",
          "type": "address"
        }
      ],
      "stateMutability": "nonpayable",
      "type": "function"
    },
    {
      "inputs": [
        {
          "internalType": "string",
          "name": "schainName",
          "type": "string"
        }
      ],
      "name": "removeTokenManager",
      "outputs": [],
      "stateMutability": "nonpayable",
      "type": "function"
    },
    {
      "inputs": [
        {
          "internalType": "bytes32",
          "name": "role",
          "type": "bytes32"
        },
        {
          "internalType": "address",
          "name": "account",
          "type": "address"
        }
      ],
      "name": "renounceRole",
      "outputs": [],
      "stateMutability": "nonpayable",
      "type": "function"
    },
    {
      "inputs": [
        {
          "internalType": "bytes32",
          "name": "role",
          "type": "bytes32"
        },
        {
          "internalType": "address",
          "name": "account",
          "type": "address"
        }
      ],
      "name": "revokeRole",
      "outputs": [],
      "stateMutability": "nonpayable",
      "type": "function"
    },
    {
      "inputs": [],
      "name": "schainHash",
      "outputs": [
        {
          "internalType": "bytes32",
          "name": "",
          "type": "bytes32"
        }
      ],
      "stateMutability": "view",
      "type": "function"
    },
    {
      "inputs": [
        {
          "internalType": "bytes4",
          "name": "interfaceId",
          "type": "bytes4"
        }
      ],
      "name": "supportsInterface",
      "outputs": [
        {
          "internalType": "bool",
          "name": "",
          "type": "bool"
        }
      ],
      "stateMutability": "view",
      "type": "function"
    },
    {
      "inputs": [],
      "name": "tokenManagerLinker",
      "outputs": [
        {
          "internalType": "contract ITokenManagerLinker",
          "name": "",
          "type": "address"
        }
      ],
      "stateMutability": "view",
      "type": "function"
    },
    {
      "inputs": [
        {
          "internalType": "bytes32",
          "name": "",
          "type": "bytes32"
        }
      ],
      "name": "tokenManagers",
      "outputs": [
        {
          "internalType": "address",
          "name": "",
          "type": "address"
        }
      ],
      "stateMutability": "view",
      "type": "function"
    },
    {
      "inputs": [
        {
          "internalType": "string",
          "name": "targetSchainName",
          "type": "string"
        },
        {
          "internalType": "address",
          "name": "contractOnMainnet",
          "type": "address"
        },
        {
          "internalType": "uint256",
          "name": "id",
          "type": "uint256"
        },
        {
          "internalType": "uint256",
          "name": "amount",
          "type": "uint256"
        }
      ],
      "name": "transferToSchainERC1155",
      "outputs": [],
      "stateMutability": "nonpayable",
      "type": "function"
    },
    {
      "inputs": [
        {
          "internalType": "string",
          "name": "targetSchainName",
          "type": "string"
        },
        {
          "internalType": "address",
          "name": "contractOnMainnet",
          "type": "address"
        },
        {
          "internalType": "uint256[]",
          "name": "ids",
          "type": "uint256[]"
        },
        {
          "internalType": "uint256[]",
          "name": "amounts",
          "type": "uint256[]"
        }
      ],
      "name": "transferToSchainERC1155Batch",
      "outputs": [],
      "stateMutability": "nonpayable",
      "type": "function"
    },
    {
      "inputs": [
        {
          "internalType": "bytes32",
          "name": "",
          "type": "bytes32"
        },
        {
          "internalType": "address",
          "name": "",
          "type": "address"
        },
        {
          "internalType": "uint256",
          "name": "",
          "type": "uint256"
        }
      ],
      "name": "transferredAmount",
      "outputs": [
        {
          "internalType": "uint256",
          "name": "",
          "type": "uint256"
        }
      ],
      "stateMutability": "view",
      "type": "function"
    }
  ],
  "bytecode": "0x608060405234801561001057600080fd5b506180a580620000216000396000f3fe60806040523480156200001157600080fd5b5060043610620002615760003560e01c80636d6112861162000149578063c0e312dc11620000c7578063d547741f1162000086578063d547741f14620005ee578063dec2deb61462000605578063e3e50fa4146200061a578063edcc12b51462000646578063f5b52e1f146200065d57600080fd5b8063c0e312dc146200056a578063c5d766641462000581578063ca15c8731462000598578063cb703bff14620005af578063cc5b715b14620005c657600080fd5b80639010d07c11620001145780639010d07c146200050357806391d14854146200051a578063a217fddf1462000531578063aebaaca9146200053a578063b9581c50146200056057600080fd5b80636d61128614620004ad5780636d6c68e614620004c15780638369091714620004d5578063884cee5a14620004ec57600080fd5b80632dc151de11620001e35780633fa194ce11620001a25780633fa194ce146200041e57806350f4428014620004355780635573b8b6146200046b57806357157cd9146200047f5780636ce681d2146200049657600080fd5b80632dc151de14620003bb5780632f2ff15d14620003cf57806336568abe14620003e657806339927cf914620003fd5780633b690b6b146200041457600080fd5b80631420de3f11620002305780631420de3f14620002fa57806315ecfe5e146200033d578063248a9ca3146200037457806328c5e182146200039a5780632d32926214620003a457600080fd5b806301ffc9a71462000266578063029996b814620002925780630b885ac3146200029e5780630f1a8f7414620002b5575b600080fd5b6200027d6200027736600462004108565b62000674565b60405190151581526020015b60405180910390f35b6200029c620006a2565b005b6200029c620002af36600462004407565b620006fa565b620002e1620002c636600462003ffc565b60ce602052600090815260409020546001600160a01b031681565b6040516001600160a01b03909116815260200162000289565b6200032e6200030b366004620040aa565b60d260209081526000938452604080852082529284528284209052825290205481565b60405190815260200162000289565b620002e16200034e36600462004016565b60d16020908152600092835260408084209091529082529020546001600160a01b031681565b6200032e6200038536600462003ffc565b60009081526065602052604090206001015490565b6200032e62000780565b6200029c620003b53660046200431c565b620007cb565b60ca54620002e1906001600160a01b031681565b6200029c620003e036600462004016565b62000984565b6200029c620003f736600462004016565b620009af565b6200027d6200040e36600462004152565b620009d5565b6200032e60cc5481565b6200032e6000805160206200805083398151915281565b6200045c6040518060400160405280600781526020016613585a5b9b995d60ca1b81525081565b60405162000289919062004a65565b60c954620002e1906001600160a01b031681565b6200029c6200049036600462004262565b62000a32565b6200029c620004a736600462004407565b62000bef565b60cd54620002e1906001600160a01b031681565b60cb54620002e1906001600160a01b031681565b6200029c620004e636600462003f15565b62000dc4565b620002e1620004fd36600462004049565b62000e90565b620002e162000514366004620040e5565b62001057565b6200027d6200052b36600462004016565b62001078565b6200032e600081565b6200027d6200054b36600462003ef5565b60d06020526000908152604090205460ff1681565b6200029c620010a3565b6200029c6200057b36600462004152565b620010ec565b6200029c62000592366004620041f3565b6200120a565b6200032e620005a936600462003ffc565b62001533565b6200029c620005c036600462004197565b6200154c565b6200032e7ffda70c2cc66a36c14884ee85424961f51b1d92b4494751699b6d105b3bcbcba881565b6200029c620005ff36600462004016565b620016a4565b60cd546200027d90600160a01b900460ff1681565b620002e16200062b36600462003ef5565b60cf602052600090815260409020546001600160a01b031681565b6200029c6200065736600462003ef5565b620016b0565b6200029c6200066e36600462003fa0565b620017cc565b60006001600160e01b03198216635a05180f60e01b14806200069c57506200069c826200188f565b92915050565b620006bd600080516020620080508339815191523362001078565b620006e55760405162461bcd60e51b8152600401620006dc9062004b01565b60405180910390fd5b60cd805460ff60a01b1916600160a01b179055565b600054610100900460ff168062000714575060005460ff16155b620007335760405162461bcd60e51b8152600401620006dc9062004b42565b600054610100900460ff1615801562000756576000805461ffff19166101011790555b62000765868686868662000bef565b801562000778576000805461ff00191690555b505050505050565b6040518060400160405280600781526020016613585a5b9b995d60ca1b815250604051602001620007b2919062004788565b6040516020818303038152906040528051906020012081565b84848080601f0160208091040260200160405190810160405280939291908181526020018383808284376000920182905250604051339450909250620008179150849060200162004788565b60408051601f1981840301815282825280516020918201208383018352600784526613585a5b9b995d60ca1b8483015291519193506200085992910162004788565b60405160208183030381529060405280519060200120811415620008915760405162461bcd60e51b8152600401620006dc9062004ab1565b6001600160a01b038216620008e95760405162461bcd60e51b815260206004820152601a60248201527f496e636f727265637420726563656976657220616464726573730000000000006044820152606401620006dc565b600081815260ce60205260409020546001600160a01b0316620009205760405162461bcd60e51b8152600401620006dc9062004a7a565b600088886040516020016200093792919062004778565b60408051601f198184030181529181528151602092830120600081815260ce909352912054909150620009799082906001600160a01b031689338a8a620018c6565b505050505050505050565b62000990828262001baf565b6000828152609760205260409020620009aa908262001bd9565b505050565b620009bb828262001bf0565b6000828152609760205260409020620009aa908262001c72565b6000806001600160a01b031660ce60008585604051602001620009fa92919062004778565b60408051808303601f19018152918152815160209283012083529082019290925201600020546001600160a01b031614159392505050565b86868080601f016020809104026020016040519081016040528093929190818152602001838380828437600092018290525060405133945090925062000a7e9150849060200162004788565b60408051601f1981840301815282825280516020918201208383018352600784526613585a5b9b995d60ca1b84830152915191935062000ac092910162004788565b6040516020818303038152906040528051906020012081141562000af85760405162461bcd60e51b8152600401620006dc9062004ab1565b6001600160a01b03821662000b505760405162461bcd60e51b815260206004820152601a60248201527f496e636f727265637420726563656976657220616464726573730000000000006044820152606401620006dc565b600081815260ce60205260409020546001600160a01b031662000b875760405162461bcd60e51b8152600401620006dc9062004a7a565b60008a8a60405160200162000b9e92919062004778565b60408051601f198184030181529181528151602092830120600081815260ce90935291205490915062000be29082906001600160a01b03168b338c8c8c8c62001c89565b5050505050505050505050565b600054610100900460ff168062000c09575060005460ff16155b62000c285760405162461bcd60e51b8152600401620006dc9062004b42565b600054610100900460ff1615801562000c4b576000805461ffff19166101011790555b6001600160a01b03821662000ca35760405162461bcd60e51b815260206004820181905260248201527f4465706f736974426f7820616464726573732068617320746f206265207365746044820152606401620006dc565b62000cad6200202d565b62000cba600033620020c7565b62000cd56000805160206200805083398151915233620020c7565b62000d017ffda70c2cc66a36c14884ee85424961f51b1d92b4494751699b6d105b3bcbcba833620020c7565b8560405160200162000d14919062004788565b60408051601f19818403018152828252805160209182012060cc5560c980546001600160a01b038a81166001600160a01b03199283161790925560ca80548a841690831617905560cb805489841690831617905560cd8054928816929091168217905560008452908301527fc968af77923193016f61d74ba6827296db5e1f37ec4fab3ad1ef20e193395e59910160405180910390a1801562000778576000805461ff0019169055505050505050565b60cb546040516311be333d60e11b81523360048201526001600160a01b039091169063237c667a90602401600060405180830381600087803b15801562000e0a57600080fd5b505af115801562000e1f573d6000803e3d6000fd5b5050505062000e896040518060400160405280600781526020016613585a5b9b995d60ca1b81525060405160200162000e59919062004788565b60408051601f19818403018152919052805160209091012060cd546001600160a01b031687338888888862001c89565b5050505050565b60c9546000906001600160a01b0316331462000eef5760405162461bcd60e51b815260206004820152601c60248201527f53656e646572206973206e6f742061204d65737361676550726f7879000000006044820152606401620006dc565b848460cc54821415801562000f0b575062000f0b8282620020d3565b62000f595760405162461bcd60e51b815260206004820152601b60248201527f526563656976657220636861696e20697320696e636f727265637400000000006044820152606401620006dc565b600062000f6786866200215e565b90506000600982600c81111562000f825762000f8262004e2f565b148062000fa35750600a82600c81111562000fa15762000fa162004e2f565b145b1562000fbe5762000fb6898888620021b2565b90506200104b565b600b82600c81111562000fd55762000fd562004e2f565b148062000ff65750600c82600c81111562000ff45762000ff462004e2f565b145b15620010095762000fb68988886200266b565b60405162461bcd60e51b815260206004820152601660248201527526b2b9b9b0b3b2aa3cb8329034b9903ab735b737bbb760511b6044820152606401620006dc565b98975050505050505050565b600082815260976020526040812062001071908362002abf565b9392505050565b60009182526065602090815260408084206001600160a01b0393909316845291905290205460ff1690565b620010be600080516020620080508339815191523362001078565b620010dd5760405162461bcd60e51b8152600401620006dc9062004b01565b60cd805460ff60a01b19169055565b60ca546001600160a01b03163314806200110e57506200110e60003362001078565b620011545760405162461bcd60e51b81526020600482015260156024820152742737ba1030baba3437b934bd32b21031b0b63632b960591b6044820152606401620006dc565b600082826040516020016200116b92919062004778565b60408051601f198184030181529181528151602092830120600081815260ce9093529120549091506001600160a01b0316620011ea5760405162461bcd60e51b815260206004820152601860248201527f546f6b656e204d616e61676572206973206e6f742073657400000000000000006044820152606401620006dc565b600090815260ce6020526040902080546001600160a01b03191690555050565b620012367ffda70c2cc66a36c14884ee85424961f51b1d92b4494751699b6d105b3bcbcba83362001078565b620012845760405162461bcd60e51b815260206004820181905260248201527f544f4b454e5f5245474953545241525f524f4c452069732072657175697265646044820152606401620006dc565b60c954604051634ccd5cd560e11b81526001600160a01b039091169063999ab9aa90620012b8908790879060040162004a36565b60206040518083038186803b158015620012d157600080fd5b505afa158015620012e6573d6000803e3d6000fd5b505050506040513d601f19601f820116820180604052508101906200130c919062003fd8565b620013535760405162461bcd60e51b815260206004820152601660248201527510da185a5b881a5cc81b9bdd0818dbdb9b9958dd195960521b6044820152606401620006dc565b6001600160a01b0381163b620013ac5760405162461bcd60e51b815260206004820152601f60248201527f476976656e2061646472657373206973206e6f74206120636f6e7472616374006044820152606401620006dc565b60008484604051602001620013c392919062004778565b60408051601f198184030181529181528151602092830120600081815260d184528281206001600160a01b038881168352945291909120549092501615620014475760405162461bcd60e51b8152602060048201526016602482015275436f756c64206e6f742072656c696e6b20636c6f6e6560501b6044820152606401620006dc565b6001600160a01b038216600090815260d0602052604090205460ff1615620014b25760405162461bcd60e51b815260206004820152601760248201527f436c6f6e652077617320616c72656164792061646465640000000000000000006044820152606401620006dc565b600081815260d1602090815260408083206001600160a01b0387811680865291845282852080546001600160a01b031916918816918217905580855260d0909352818420805460ff1916600117905590519192909184917ff86f4b9b158b421a62f31d8b430c86afba56c6bb611fb82bc115dd030903d36a91a45050505050565b60008181526097602052604081206200069c9062002acd565b60ca546001600160a01b03163314806200156e57506200156e60003362001078565b620015b45760405162461bcd60e51b81526020600482015260156024820152742737ba1030baba3437b934bd32b21031b0b63632b960591b6044820152606401620006dc565b60008383604051602001620015cb92919062004778565b60408051601f198184030181529181528151602092830120600081815260ce9093529120549091506001600160a01b0316156200164b5760405162461bcd60e51b815260206004820152601c60248201527f546f6b656e204d616e6167657220697320616c726561647920736574000000006044820152606401620006dc565b6001600160a01b038216620016745760405162461bcd60e51b8152600401620006dc9062004a7a565b600090815260ce6020526040902080546001600160a01b0319166001600160a01b03929092169190911790555050565b620009bb828262002ad8565b620016bd60003362001078565b6200170b5760405162461bcd60e51b815260206004820152601e60248201527f44454641554c545f41444d494e5f524f4c4520697320726571756972656400006044820152606401620006dc565b6001600160a01b038116620017635760405162461bcd60e51b815260206004820181905260248201527f4465706f736974426f7820616464726573732068617320746f206265207365746044820152606401620006dc565b60cd54604080516001600160a01b03928316815291831660208301527fc968af77923193016f61d74ba6827296db5e1f37ec4fab3ad1ef20e193395e59910160405180910390a160cd80546001600160a01b0319166001600160a01b0392909216919091179055565b60cb546040516311be333d60e11b81523360048201526001600160a01b039091169063237c667a90602401600060405180830381600087803b1580156200181257600080fd5b505af115801562001827573d6000803e3d6000fd5b50505050620009aa6040518060400160405280600781526020016613585a5b9b995d60ca1b81525060405160200162001861919062004788565b60408051601f19818403018152919052805160209091012060cd546001600160a01b031685338686620018c6565b60006001600160e01b03198216637965db0b60e01b14806200069c57506301ffc9a760e01b6001600160e01b03198316146200069c565b600086815260d1602090815260408083206001600160a01b03808916855292528220541680620018f7575060019050845b6001600160a01b0381163b6200194b5760405162461bcd60e51b81526020600482015260186024820152772737903a37b5b2b71031b637b7329037b71039b1b430b4b760411b6044820152606401620006dc565b60405163e985e9c560e01b81523360048201523060248201526001600160a01b0382169063e985e9c59060440160206040518083038186803b1580156200199157600080fd5b505afa158015620019a6573d6000803e3d6000fd5b505050506040513d601f19601f82011682018060405250810190620019cc919062003fd8565b62001a165760405162461bcd60e51b81526020600482015260196024820152782737ba1030b63637bbb2b21022a92198989a9a902a37b5b2b760391b6044820152606401620006dc565b600062001a268787878762002b02565b9050821562001ad05762001a3e898333888862002b6b565b905062001a62898362001a518862002c33565b62001a5c8862002c33565b62002c7d565b604051637921219560e11b81526001600160a01b0383169063f242432a9062001a9690339030908a908a90600401620048e1565b600060405180830381600087803b15801562001ab157600080fd5b505af115801562001ac6573d6000803e3d6000fd5b5050505062001b3a565b604051637a94c56560e11b815233600482015260248101869052604481018590526001600160a01b0383169063f5298aca90606401600060405180830381600087803b15801562001b2057600080fd5b505af115801562001b35573d6000803e3d6000fd5b505050505b60c954604051634a24490160e11b81526001600160a01b039091169063944892029062001b70908c908c90869060040162004a0a565b600060405180830381600087803b15801562001b8b57600080fd5b505af115801562001ba0573d6000803e3d6000fd5b50505050505050505050505050565b60008281526065602052604090206001015462001bcd813362002d89565b620009aa838362002df8565b600062001071836001600160a01b03841662002e82565b6001600160a01b038116331462001c625760405162461bcd60e51b815260206004820152602f60248201527f416363657373436f6e74726f6c3a2063616e206f6e6c792072656e6f756e636560448201526e103937b632b9903337b91039b2b63360891b6064820152608401620006dc565b62001c6e828262002ed4565b5050565b600062001071836001600160a01b03841662002f3e565b600088815260d1602090815260408083206001600160a01b03808b1685529252822054168062001cba575060019050865b6001600160a01b0381163b62001d0e5760405162461bcd60e51b81526020600482015260186024820152772737903a37b5b2b71031b637b7329037b71039b1b430b4b760411b6044820152606401620006dc565b60405163e985e9c560e01b81523360048201523060248201526001600160a01b0382169063e985e9c59060440160206040518083038186803b15801562001d5457600080fd5b505afa15801562001d69573d6000803e3d6000fd5b505050506040513d601f19601f8201168201806040525081019062001d8f919062003fd8565b62001dd95760405162461bcd60e51b81526020600482015260196024820152782737ba1030b63637bbb2b21022a92198989a9a902a37b5b2b760391b6044820152606401620006dc565b600062001e4c898989898080602002602001604051908101604052809392919081815260200183836020028082843760009201919091525050604080516020808d0282810182019093528c82529093508c92508b9182918501908490808284376000920191909152506200304292505050565b9050821562001f4b5762001e668b83338a8a8a8a62003091565b905062001ed98b8389898080602002602001604051908101604052809392919081815260200183836020028082843760009201919091525050604080516020808d0282810182019093528c82529093508c92508b91829185019084908082843760009201919091525062002c7d92505050565b604051631759616b60e11b81526001600160a01b03831690632eb2c2d69062001f1190339030908c908c908c908c906004016200481f565b600060405180830381600087803b15801562001f2c57600080fd5b505af115801562001f41573d6000803e3d6000fd5b5050505062001fb6565b604051631ac8311560e21b81526001600160a01b03831690636b20c4549062001f819033908b908b908b908b9060040162004919565b600060405180830381600087803b15801562001f9c57600080fd5b505af115801562001fb1573d6000803e3d6000fd5b505050505b60c954604051634a24490160e11b81526001600160a01b039091169063944892029062001fec908e908e90869060040162004a0a565b600060405180830381600087803b1580156200200757600080fd5b505af11580156200201c573d6000803e3d6000fd5b505050505050505050505050505050565b600054610100900460ff168062002047575060005460ff16155b620020665760405162461bcd60e51b8152600401620006dc9062004b42565b600054610100900460ff1615801562002089576000805461ffff19166101011790555b6200209362003213565b6200209d62003213565b620020a762003213565b620020b162003213565b8015620020c4576000805461ff00191690555b50565b62000990828262003283565b60006040518060400160405280600781526020016613585a5b9b995d60ca1b81525060405160200162002107919062004788565b6040516020818303038152906040528051906020012083146200214757600083815260ce60205260409020546001600160a01b0383811691161462001071565b5060cd546001600160a01b03908116911614919050565b6000806200216f8385018562003ffc565b90506200217e60208262004df6565b620021a4576200219b620021958483818862004d08565b6200215e565b9150506200069c565b6200219b8385018562004134565b600080620021c184846200215e565b9050600080808080600986600c811115620021e057620021e062004e2f565b141562002266576000620021f58a8a6200328f565b90508060400151955080602001519450806060015193508060800151925060d160008c81526020019081526020016000206000866001600160a01b03166001600160a01b0316815260200190815260200160002060009054906101000a90046001600160a01b031691505062002424565b6000620022748a8a6200334b565b9050806000015160400151955080600001516020015194508060000151606001519350806000015160800151925060d160008c81526020019081526020016000206000866001600160a01b03166001600160a01b0316815260200190815260200160002060009054906101000a90046001600160a01b0316915060006001600160a01b0316826001600160a01b03161415620024225760cd54600160a01b900460ff16620023655760405162461bcd60e51b815260206004820152601c60248201527f4175746f6d61746963206465706c6f792069732064697361626c6564000000006044820152606401620006dc565b602081015151604051620023799062003b17565b62002385919062004a65565b604051809103906000f080158015620023a2573d6000803e3d6000fd5b5060008c815260d1602090815260408083206001600160a01b038a811680865291845282852080546001600160a01b031916918716918217905580855260d0909352818420805460ff191660011790559051939550909290918e917fae5aabebaedd1b95e68d95d1bc05734a63a8e451f94b37864515b78c532247d99190a45b505b600586600c8111156200243b576200243b62004e2f565b1480156200249057506040518060400160405280600781526020016613585a5b9b995d60ca1b81525060405160200162002476919062004788565b604051602081830303815290604052805190602001208a14155b156200257f576001600160a01b0384163b620024ef5760405162461bcd60e51b815260206004820152601a60248201527f496e636f7272656374206d61696e20636861696e20746f6b656e0000000000006044820152606401620006dc565b620025118a85620025008662002c33565b6200250b8662002c33565b620033ed565b604051637921219560e11b81526001600160a01b0385169063f242432a9062002545903090899088908890600401620048e1565b600060405180830381600087803b1580156200256057600080fd5b505af115801562002575573d6000803e3d6000fd5b50505050620025f9565b60405163731133e960e01b81526001600160a01b0386811660048301526024820185905260448201849052608060648301526000608483015282169063731133e99060a401600060405180830381600087803b158015620025df57600080fd5b505af1158015620025f4573d6000803e3d6000fd5b505050505b806001600160a01b0316846001600160a01b03168b7f2349a6dafaf84dd371a44cd78bd587d9e750c3dfa1137d21f34f00e0d4babcb26200263a8762002c33565b620026458762002c33565b60405162002655929190620049e1565b60405180910390a4509298975050505050505050565b6000806200267a84846200215e565b905060008060608082600b86600c8111156200269a576200269a62004e2f565b141562002720576000620026af8a8a620034f9565b90508060400151955080602001519450806060015193508060800151925060d160008c81526020019081526020016000206000866001600160a01b03166001600160a01b0316815260200190815260200160002060009054906101000a90046001600160a01b0316915050620028c9565b60006200272e8a8a620035ba565b9050806000015160400151955080600001516020015194508060000151606001519350806000015160800151925060d160008c81526020019081526020016000206000866001600160a01b03166001600160a01b0316815260200190815260200160002060009054906101000a90046001600160a01b0316915060006001600160a01b0316826001600160a01b03161415620028c75760cd54600160a01b900460ff166200281f5760405162461bcd60e51b815260206004820152601c60248201527f4175746f6d61746963206465706c6f792069732064697361626c6564000000006044820152606401620006dc565b602081015151604051620028339062003b17565b6200283f919062004a65565b604051809103906000f0801580156200285c573d6000803e3d6000fd5b5060008c815260d1602090815260408083206001600160a01b038a81168086529190935281842080546001600160a01b03191693861693841790559051939550909290918e917fae5aabebaedd1b95e68d95d1bc05734a63a8e451f94b37864515b78c532247d99190a45b505b600586600c811115620028e057620028e062004e2f565b1480156200293557506040518060400160405280600781526020016613585a5b9b995d60ca1b8152506040516020016200291b919062004788565b604051602081830303815290604052805190602001208a14155b1562002a10576001600160a01b0384163b620029945760405162461bcd60e51b815260206004820152601a60248201527f496e636f7272656374206d61696e20636861696e20746f6b656e0000000000006044820152606401620006dc565b620029a28a858585620033ed565b604051631759616b60e11b81526001600160a01b03851690632eb2c2d690620029d690309089908890889060040162004882565b600060405180830381600087803b158015620029f157600080fd5b505af115801562002a06573d6000803e3d6000fd5b5050505062002a77565b604051630fbfeffd60e11b81526001600160a01b03821690631f7fdffa9062002a429088908790879060040162004955565b600060405180830381600087803b15801562002a5d57600080fd5b505af115801562002a72573d6000803e3d6000fd5b505050505b806001600160a01b0316846001600160a01b03168b7f2349a6dafaf84dd371a44cd78bd587d9e750c3dfa1137d21f34f00e0d4babcb2868660405162002655929190620049e1565b600062001071838362003661565b60006200069c825490565b60008281526065602052604090206001015462002af6813362002d89565b620009aa838362002ed4565b6040805160c081018252600960a0820190815281526001600160a01b0380871660208084019190915290861682840152606080830186905260808301859052925162002b519183910162004c26565b604051602081830303815290604052915050949350505050565b600085815260d3602052604081206060919062002b8990876200368e565b90508062002bbe5762002b9d8787620036b1565b62002bb68686868662002bb08b620037ca565b6200386b565b915062002bcf565b62002bcc8686868662002b02565b91505b856001600160a01b0316877f601046fc8dbb772c2b88d30850532ffec5253f2e73c855af1c5f318a7a4562b062002c068762002c33565b62002c118762002c33565b60405162002c21929190620049e1565b60405180910390a35095945050505050565b60408051600180825281830190925260609160208083019080368337019050509050818160008151811062002c6c5762002c6c62004e5b565b602002602001018181525050919050565b805182511462002cd05760405162461bcd60e51b815260206004820152601a60248201527f496e636f7272656374206c656e677468206f66206172726179730000000000006044820152606401620006dc565b60005b825181101562000e895781818151811062002cf25762002cf262004e5b565b602002602001015160d260008781526020019081526020016000206000866001600160a01b03166001600160a01b03168152602001908152602001600020600085848151811062002d475762002d4762004e5b565b60200260200101518152602001908152602001600020600082825462002d6e919062004d34565b9091555081905062002d808162004dd8565b91505062002cd3565b62002d95828262001078565b62001c6e5762002db0816001600160a01b03166014620038f2565b62002dbd836020620038f2565b60405160200162002dd0929190620047a6565b60408051601f198184030181529082905262461bcd60e51b8252620006dc9160040162004a65565b62002e04828262001078565b62001c6e5760008281526065602090815260408083206001600160a01b03851684529091529020805460ff1916600117905562002e3e3390565b6001600160a01b0316816001600160a01b0316837f2f8788117e7eff1d82e926ec794901d17c78024a50270940304540a733656f0d60405160405180910390a45050565b600081815260018301602052604081205462002ecb575081546001818101845560008481526020808220909301849055845484825282860190935260409020919091556200069c565b5060006200069c565b62002ee0828262001078565b1562001c6e5760008281526065602090815260408083206001600160a01b0385168085529252808320805460ff1916905551339285917ff6391f5c32d9c69d2a47ea670b442974b53935d1edc7fd64eb21e047a839171b9190a45050565b600081815260018301602052604081205480156200303757600062002f6560018362004d71565b855490915060009062002f7b9060019062004d71565b905081811462002fe757600086600001828154811062002f9f5762002f9f62004e5b565b906000526020600020015490508087600001848154811062002fc55762002fc562004e5b565b6000918252602080832090910192909255918252600188019052604090208390555b855486908062002ffb5762002ffb62004e45565b6001900381819060005260206000200160009055905585600101600086815260200190815260200160002060009055600193505050506200069c565b60009150506200069c565b6040805160c081018252600b60a0820190815281526001600160a01b0380871660208084019190915290861682840152606080830186905260808301859052925162002b519183910162004c11565b600087815260d36020526040812060609190620030af90896200368e565b9050806200314957620030c38989620036b1565b62003141888888888080602002602001604051908101604052809392919081815260200183836020028082843760009201919091525050604080516020808c0282810182019093528b82529093508b92508a9182918501908490808284376000920191909152506200313b92508f9150620037ca9050565b62003aab565b9150620031bd565b620031ba888888888080602002602001604051908101604052809392919081815260200183836020028082843760009201919091525050604080516020808c0282810182019093528b82529093508b92508a9182918501908490808284376000920191909152506200304292505050565b91505b876001600160a01b0316897f601046fc8dbb772c2b88d30850532ffec5253f2e73c855af1c5f318a7a4562b088888888604051620031ff9493929190620049ab565b60405180910390a350979650505050505050565b600054610100900460ff16806200322d575060005460ff16155b6200324c5760405162461bcd60e51b8152600401620006dc9062004b42565b600054610100900460ff16158015620020b1576000805461ffff19166101011790558015620020c4576000805461ff001916905550565b62001c6e828262002df8565b6040805160c081018252600060a082018181528252602082018190529181018290526060810182905260808101919091526009620032ce84846200215e565b600c811115620032e257620032e262004e2f565b146200333d5760405162461bcd60e51b8152602060048201526024808201527f4d6573736167652074797065206973206e6f742045524331313535207472616e60448201526339b332b960e11b6064820152608401620006dc565b6200107182840184620045e2565b6200335562003b25565b600a6200336384846200215e565b600c81111562003377576200337762004e2f565b14620033df5760405162461bcd60e51b815260206004820152603060248201527f4d6573736167652074797065206973206e6f742045524331313535416e64546f60448201526f35b2b724b73337903a3930b739b332b960811b6064820152608401620006dc565b62001071828401846200449c565b8051825114620034405760405162461bcd60e51b815260206004820152601a60248201527f496e636f7272656374206c656e677468206f66206172726179730000000000006044820152606401620006dc565b60005b825181101562000e895781818151811062003462576200346262004e5b565b602002602001015160d260008781526020019081526020016000206000866001600160a01b03166001600160a01b031681526020019081526020016000206000858481518110620034b757620034b762004e5b565b602002602001015181526020019081526020016000206000828254620034de919062004d71565b90915550819050620034f08162004dd8565b91505062003443565b6040805160c081018252600060a082018181528252602082018190529181019190915260608082018190526080820152600b6200353784846200215e565b600c8111156200354b576200354b62004e2f565b14620035ac5760405162461bcd60e51b815260206004820152602960248201527f4d6573736167652074797065206973206e6f7420455243313135354261746368604482015268103a3930b739b332b960b91b6064820152608401620006dc565b6200107182840184620045a2565b620035c462003b7e565b600c620035d284846200215e565b600c811115620035e657620035e662004e2f565b14620036535760405162461bcd60e51b815260206004820152603560248201527f4d6573736167652074797065206973206e6f742045524331313535426174636860448201527420b7322a37b5b2b724b73337903a3930b739b332b960591b6064820152608401620006dc565b620010718284018462004524565b60008260000182815481106200367b576200367b62004e5b565b9060005260206000200154905092915050565b6001600160a01b0381166000908152600183016020526040812054151562001071565b6001600160a01b0381163b6200370a5760405162461bcd60e51b815260206004820152601f60248201527f476976656e2061646472657373206973206e6f74206120636f6e7472616374006044820152606401620006dc565b600082815260d3602052604090206200372490826200368e565b15620037735760405162461bcd60e51b815260206004820152601f60248201527f4552433131353520546f6b656e2077617320616c7265616479206164646564006044820152606401620006dc565b600082815260d3602052604090206200378d908262001bd9565b506040516000906001600160a01b0383169084907ff86f4b9b158b421a62f31d8b430c86afba56c6bb611fb82bc115dd030903d36a908490a45050565b6040805160208101909152606081526040805160208101918290526303a24d0760e21b90915260006024820152806001600160a01b038416630e89341c6044830160006040518083038186803b1580156200382457600080fd5b505afa15801562003839573d6000803e3d6000fd5b505050506040513d6000823e601f3d908101601f1916820160405262003863919081019062004388565b905292915050565b604080516101008101825260609160009190819081018060e0830180600a81525081526020018a6001600160a01b03168152602001896001600160a01b0316815260200188815260200187815250815260200184815250905080604051602001620038d7919062004b90565b60405160208183030381529060405291505095945050505050565b606060006200390383600262004d4f565b6200391090600262004d34565b6001600160401b038111156200392a576200392a62004e71565b6040519080825280601f01601f19166020018201604052801562003955576020820181803683370190505b509050600360fc1b8160008151811062003973576200397362004e5b565b60200101906001600160f81b031916908160001a905350600f60fb1b81600181518110620039a557620039a562004e5b565b60200101906001600160f81b031916908160001a9053506000620039cb84600262004d4f565b620039d890600162004d34565b90505b600181111562003a5a576f181899199a1a9b1b9c1cb0b131b232b360811b85600f166010811062003a105762003a1062004e5b565b1a60f81b82828151811062003a295762003a2962004e5b565b60200101906001600160f81b031916908160001a90535060049490941c9362003a528162004dbe565b9050620039db565b508315620010715760405162461bcd60e51b815260206004820181905260248201527f537472696e67733a20686578206c656e67746820696e73756666696369656e746044820152606401620006dc565b604080516101008101825260609160009190819081018060e0830180600c81525081526020018a6001600160a01b03168152602001896001600160a01b0316815260200188815260200187815250815260200184815250905080604051602001620038d7919062004bcc565b6131b28062004e9e83390190565b6040805161010081018252600060e08201818152928201928352606082018190526080820181905260a0820181905260c08201529081905b815260200162003b796040518060200160405280606081525090565b905290565b6040805161010081018252600060e082018181529282019283526060808301829052608083019190915260a0820181905260c082015290819062003b5d565b60008083601f84011262003bd057600080fd5b5081356001600160401b0381111562003be857600080fd5b6020830191508360208260051b850101111562003c0457600080fd5b9250929050565b600082601f83011262003c1d57600080fd5b813560206001600160401b0382111562003c3b5762003c3b62004e71565b8160051b62003c4c82820162004cab565b83815282810190868401838801850189101562003c6857600080fd5b600093505b8584101562003c8d57803583526001939093019291840191840162003c6d565b50979650505050505050565b60008083601f84011262003cac57600080fd5b5081356001600160401b0381111562003cc457600080fd5b60208301915083602082850101111562003c0457600080fd5b8035600d811062003ced57600080fd5b919050565b600082601f83011262003d0457600080fd5b813562003d1b62003d158262004cde565b62004cab565b81815284602083860101111562003d3157600080fd5b816020850160208301376000918101602001919091529392505050565b60006020828403121562003d6157600080fd5b62003d6b62004c36565b905062003d788262003cdd565b815292915050565b60006020828403121562003d9357600080fd5b62003d9d62004c36565b905081356001600160401b0381111562003db657600080fd5b62003dc48482850162003cf2565b82525092915050565b600060a0828403121562003de057600080fd5b62003dea62004c61565b905062003df8838362003d4e565b8152602082013562003e0a8162004e87565b6020820152604082013562003e1f8162004e87565b604082015260608201356001600160401b038082111562003e3f57600080fd5b62003e4d8583860162003c0b565b6060840152608084013591508082111562003e6757600080fd5b5062003e768482850162003c0b565b60808301525092915050565b600060a0828403121562003e9557600080fd5b62003e9f62004c61565b905062003ead838362003d4e565b8152602082013562003ebf8162004e87565b6020820152604082013562003ed48162004e87565b80604083015250606082013560608201526080820135608082015292915050565b60006020828403121562003f0857600080fd5b8135620010718162004e87565b60008060008060006060868803121562003f2e57600080fd5b853562003f3b8162004e87565b945060208601356001600160401b038082111562003f5857600080fd5b62003f6689838a0162003bbd565b9096509450604088013591508082111562003f8057600080fd5b5062003f8f8882890162003bbd565b969995985093965092949392505050565b60008060006060848603121562003fb657600080fd5b833562003fc38162004e87565b95602085013595506040909401359392505050565b60006020828403121562003feb57600080fd5b815180151581146200107157600080fd5b6000602082840312156200400f57600080fd5b5035919050565b600080604083850312156200402a57600080fd5b8235915060208301356200403e8162004e87565b809150509250929050565b600080600080606085870312156200406057600080fd5b843593506020850135620040748162004e87565b925060408501356001600160401b038111156200409057600080fd5b6200409e8782880162003c99565b95989497509550505050565b600080600060608486031215620040c057600080fd5b833592506020840135620040d48162004e87565b929592945050506040919091013590565b60008060408385031215620040f957600080fd5b50508035926020909101359150565b6000602082840312156200411b57600080fd5b81356001600160e01b0319811681146200107157600080fd5b6000602082840312156200414757600080fd5b620010718262003cdd565b600080602083850312156200416657600080fd5b82356001600160401b038111156200417d57600080fd5b6200418b8582860162003c99565b90969095509350505050565b600080600060408486031215620041ad57600080fd5b83356001600160401b03811115620041c457600080fd5b620041d28682870162003c99565b9094509250506020840135620041e88162004e87565b809150509250925092565b600080600080606085870312156200420a57600080fd5b84356001600160401b038111156200422157600080fd5b6200422f8782880162003c99565b9095509350506020850135620042458162004e87565b91506040850135620042578162004e87565b939692955090935050565b60008060008060008060006080888a0312156200427e57600080fd5b87356001600160401b03808211156200429657600080fd5b620042a48b838c0162003c99565b909950975060208a01359150620042bb8262004e87565b90955060408901359080821115620042d257600080fd5b620042e08b838c0162003bbd565b909650945060608a0135915080821115620042fa57600080fd5b50620043098a828b0162003bbd565b989b979a50959850939692959293505050565b6000806000806000608086880312156200433557600080fd5b85356001600160401b038111156200434c57600080fd5b6200435a8882890162003c99565b9096509450506020860135620043708162004e87565b94979396509394604081013594506060013592915050565b6000602082840312156200439b57600080fd5b81516001600160401b03811115620043b257600080fd5b8201601f81018413620043c457600080fd5b8051620043d562003d158262004cde565b818152856020838501011115620043eb57600080fd5b620043fe82602083016020860162004d8b565b95945050505050565b600080600080600060a086880312156200442057600080fd5b85356001600160401b038111156200443757600080fd5b620044458882890162003cf2565b9550506020860135620044588162004e87565b935060408601356200446a8162004e87565b925060608601356200447c8162004e87565b915060808601356200448e8162004e87565b809150509295509295909350565b600060208284031215620044af57600080fd5b81356001600160401b0380821115620044c757600080fd5b9083019060c08286031215620044dc57600080fd5b620044e662004c86565b620044f2868462003e82565b815260a0830135828111156200450757600080fd5b620045158782860162003d80565b60208301525095945050505050565b6000602082840312156200453757600080fd5b81356001600160401b03808211156200454f57600080fd5b90830190604082860312156200456457600080fd5b6200456e62004c86565b8235828111156200457e57600080fd5b6200458c8782860162003dcd565b8252506020830135828111156200450757600080fd5b600060208284031215620045b557600080fd5b81356001600160401b03811115620045cc57600080fd5b620045da8482850162003dcd565b949350505050565b600060a08284031215620045f557600080fd5b62001071838362003e82565b81835260006001600160fb1b038311156200461b57600080fd5b8260051b8083602087013760009401602001938452509192915050565b600081518084526020808501945080840160005b838110156200466a578151875295820195908201906001016200464c565b509495945050505050565b600081518084526200468f81602086016020860162004d8b565b601f01601f19169290920160200192915050565b8051600d8110620046c457634e487b7160e01b600052602160045260246000fd5b90915250565b620046d7828251620046a3565b6000602082015160018060a01b0380821660208601528060408501511660408601525050606082015160a060608501526200471660a085018262004638565b905060808301518482036080860152620043fe828262004638565b6200473e828251620046a3565b6020818101516001600160a01b03908116918401919091526040808301519091169083015260608082015190830152608090810151910152565b8183823760009101908152919050565b600082516200479c81846020870162004d8b565b9190910192915050565b7f416363657373436f6e74726f6c3a206163636f756e7420000000000000000000815260008351620047e081601785016020880162004d8b565b7001034b99036b4b9b9b4b733903937b6329607d1b60179184019182015283516200481381602884016020880162004d8b565b01602801949350505050565b6001600160a01b0387811682528616602082015260a0604082018190526000906200484e908301868862004601565b82810360608401526200486381858762004601565b8381036080909401939093525050600081526020019695505050505050565b6001600160a01b0385811682528416602082015260a060408201819052600090620048b09083018562004638565b8281036060840152620048c4818562004638565b838103608090940193909352505060008152602001949350505050565b6001600160a01b0394851681529290931660208301526040820152606081019190915260a06080820181905260009082015260c00190565b6001600160a01b038616815260606020820181905260009062004940908301868862004601565b82810360408401526200104b81858762004601565b6001600160a01b03841681526080602082018190526000906200497b9083018562004638565b82810360408401526200498f818562004638565b8381036060909401939093525050600081526020019392505050565b604081526000620049c160408301868862004601565b8281036020840152620049d681858762004601565b979650505050505050565b604081526000620049f6604083018562004638565b8281036020840152620043fe818562004638565b8381526001600160a01b0383166020820152606060408201819052600090620043fe9083018462004675565b60208152816020820152818360408301376000818301604090810191909152601f909201601f19160101919050565b60208152600062001071602083018462004675565b6020808252601f908201527f496e636f727265637420546f6b656e204d616e61676572206164647265737300604082015260600190565b60208082526030908201527f546869732066756e6374696f6e206973206e6f7420666f72207472616e73666560408201526f1c9c9a5b99c81d1bc813585a5b9b995d60821b606082015260800190565b60208082526021908201527f4155544f4d415449435f4445504c4f595f524f4c4520697320726571756972656040820152601960fa1b606082015260800190565b6020808252602e908201527f496e697469616c697a61626c653a20636f6e747261637420697320616c72656160408201526d191e481a5b9a5d1a585b1a5e995960921b606082015260800190565b6020815262004ba460208201835162004731565b6000602083015160c08084015280519050602060e0840152620045da61010084018262004675565b60208152600082516040602084015262004bea6060840182620046ca565b602085810151858303601f1901604087015251818352919250620043fe9083018262004675565b602081526000620010716020830184620046ca565b60a081016200069c828462004731565b604051602081016001600160401b038111828210171562004c5b5762004c5b62004e71565b60405290565b60405160a081016001600160401b038111828210171562004c5b5762004c5b62004e71565b604080519081016001600160401b038111828210171562004c5b5762004c5b62004e71565b604051601f8201601f191681016001600160401b038111828210171562004cd65762004cd662004e71565b604052919050565b60006001600160401b0382111562004cfa5762004cfa62004e71565b50601f01601f191660200190565b6000808585111562004d1957600080fd5b8386111562004d2757600080fd5b5050820193919092039150565b6000821982111562004d4a5762004d4a62004e19565b500190565b600081600019048311821515161562004d6c5762004d6c62004e19565b500290565b60008282101562004d865762004d8662004e19565b500390565b60005b8381101562004da857818101518382015260200162004d8e565b8381111562004db8576000848401525b50505050565b60008162004dd05762004dd062004e19565b506000190190565b600060001982141562004def5762004def62004e19565b5060010190565b60008262004e1457634e487b7160e01b600052601260045260246000fd5b500690565b634e487b7160e01b600052601160045260246000fd5b634e487b7160e01b600052602160045260246000fd5b634e487b7160e01b600052603160045260246000fd5b634e487b7160e01b600052603260045260246000fd5b634e487b7160e01b600052604160045260246000fd5b6001600160a01b0381168114620020c457600080fdfe60806040523480156200001157600080fd5b50604051620031b2380380620031b2833981016040819052620000349162000736565b600054610100900460ff16806200004e575060005460ff16155b620000a65760405162461bcd60e51b815260206004820152602e60248201526000805160206200317283398151915260448201526d191e481a5b9a5d1a585b1a5e995960921b60648201526084015b60405180910390fd5b600054610100900460ff16158015620000c9576000805461ffff19166101011790555b620000de6200015a60201b620009b11760201c565b620000f4826200022960201b62000a3d1760201c565b62000109620002f060201b62000ac31760201c565b6200012460008051602062003192833981519152806200038a565b6200013f6000805160206200319283398151915233620003d5565b801562000152576000805461ff00191690555b505062000865565b600054610100900460ff168062000174575060005460ff16155b620001c85760405162461bcd60e51b815260206004820152602e60248201526000805160206200317283398151915260448201526d191e481a5b9a5d1a585b1a5e995960921b60648201526084016200009d565b600054610100900460ff16158015620001eb576000805461ffff19166101011790555b620001f562000418565b620001ff62000418565b6200020962000418565b6200021362000418565b801562000226576000805461ff00191690555b50565b600054610100900460ff168062000243575060005460ff16155b620002975760405162461bcd60e51b815260206004820152602e60248201526000805160206200317283398151915260448201526d191e481a5b9a5d1a585b1a5e995960921b60648201526084016200009d565b600054610100900460ff16158015620002ba576000805461ffff19166101011790555b620002c462000418565b620002ce62000418565b620002d982620004bd565b8015620002ec576000805461ff00191690555b5050565b600054610100900460ff16806200030a575060005460ff16155b6200035e5760405162461bcd60e51b815260206004820152602e60248201526000805160206200317283398151915260448201526d191e481a5b9a5d1a585b1a5e995960921b60648201526084016200009d565b600054610100900460ff16158015620001f5576000805461ffff1916610101179055620001ff62000418565b600082815260656020526040808220600101805490849055905190918391839186917fbd79b86ffe0ab8e8776151514217cd7cacd52c909f66475c3af44e129f0b00ff9190a4505050565b620003ec82826200055960201b62000b211760201c565b60008281526097602090815260409091206200041391839062000b2b62000565821b17901c565b505050565b600054610100900460ff168062000432575060005460ff16155b620004865760405162461bcd60e51b815260206004820152602e60248201526000805160206200317283398151915260448201526d191e481a5b9a5d1a585b1a5e995960921b60648201526084016200009d565b600054610100900460ff1615801562000213576000805461ffff1916610101179055801562000226576000805461ff001916905550565b600054610100900460ff1680620004d7575060005460ff16155b6200052b5760405162461bcd60e51b815260206004820152602e60248201526000805160206200317283398151915260448201526d191e481a5b9a5d1a585b1a5e995960921b60648201526084016200009d565b600054610100900460ff161580156200054e576000805461ffff19166101011790555b620002d98262000585565b620002ec82826200059a565b60006200057c836001600160a01b0384166200063e565b90505b92915050565b8051620002ec9060cb90602084019062000690565b60008281526065602090815260408083206001600160a01b038516845290915290205460ff16620002ec5760008281526065602090815260408083206001600160a01b03851684529091529020805460ff19166001179055620005fa3390565b6001600160a01b0316816001600160a01b0316837f2f8788117e7eff1d82e926ec794901d17c78024a50270940304540a733656f0d60405160405180910390a45050565b600081815260018301602052604081205462000687575081546001818101845560008481526020808220909301849055845484825282860190935260409020919091556200057f565b5060006200057f565b8280546200069e9062000812565b90600052602060002090601f016020900481019282620006c257600085556200070d565b82601f10620006dd57805160ff19168380011785556200070d565b828001600101855582156200070d579182015b828111156200070d578251825591602001919060010190620006f0565b506200071b9291506200071f565b5090565b5b808211156200071b576000815560010162000720565b600060208083850312156200074a57600080fd5b82516001600160401b03808211156200076257600080fd5b818501915085601f8301126200077757600080fd5b8151818111156200078c576200078c6200084f565b604051601f8201601f19908116603f01168101908382118183101715620007b757620007b76200084f565b816040528281528886848701011115620007d057600080fd5b600093505b82841015620007f45784840186015181850187015292850192620007d5565b82841115620008065760008684830101525b98975050505050505050565b600181811c908216806200082757607f821691505b602082108114156200084957634e487b7160e01b600052602260045260246000fd5b50919050565b634e487b7160e01b600052604160045260246000fd5b6128fd80620008756000396000f3fe608060405234801561001057600080fd5b50600436106101365760003560e01c8063731133e9116100b8578063ca15c8731161007c578063ca15c873146102b4578063d5391393146102c7578063d547741f146102ee578063e985e9c514610301578063f242432a1461033d578063f5298aca1461035057600080fd5b8063731133e9146102485780639010d07c1461025b57806391d1485414610286578063a217fddf14610299578063a22cb465146102a157600080fd5b80632eb2c2d6116100ff5780632eb2c2d6146101dc5780632f2ff15d146101ef57806336568abe146102025780634e1273f4146102155780636b20c4541461023557600080fd5b8062fdd58e1461013b57806301ffc9a7146101615780630e89341c146101845780631f7fdffa146101a4578063248a9ca3146101b9575b600080fd5b61014e61014936600461200f565b610363565b6040519081526020015b60405180910390f35b61017461016f3660046121f0565b6103ff565b6040519015158152602001610158565b610197610192366004612192565b61040a565b60405161015891906123ea565b6101b76101b2366004611f3a565b61049e565b005b61014e6101c7366004612192565b60009081526065602052604090206001015490565b6101b76101ea366004611db7565b61051f565b6101b76101fd3660046121ab565b6105b6565b6101b76102103660046121ab565b6105dd565b6102286102233660046120c1565b6105ff565b60405161015891906123a9565b6101b7610243366004611ec6565b610729565b6101b761025636600461206c565b61076c565b61026e6102693660046121ce565b6107e7565b6040516001600160a01b039091168152602001610158565b6101746102943660046121ab565b610806565b61014e600081565b6101b76102af366004611fd3565b610831565b61014e6102c2366004612192565b610908565b61014e7f9f2df0fed2c77648de5860a4cc508cd0818c85b8b8a1ab4ceeef8d981c8956a681565b6101b76102fc3660046121ab565b61091f565b61017461030f366004611d84565b6001600160a01b03918216600090815260ca6020908152604080832093909416825291909152205460ff1690565b6101b761034b366004611e61565b610929565b6101b761035e366004612039565b61096e565b60006001600160a01b0383166103d45760405162461bcd60e51b815260206004820152602b60248201527f455243313135353a2062616c616e636520717565727920666f7220746865207a60448201526a65726f206164647265737360a81b60648201526084015b60405180910390fd5b50600081815260c9602090815260408083206001600160a01b03861684529091529020545b92915050565b60006103f982610b40565b606060cb805461041990612730565b80601f016020809104026020016040519081016040528092919081815260200182805461044590612730565b80156104925780601f1061046757610100808354040283529160200191610492565b820191906000526020600020905b81548152906001019060200180831161047557829003601f168201915b50505050509050919050565b6104c87f9f2df0fed2c77648de5860a4cc508cd0818c85b8b8a1ab4ceeef8d981c8956a633610806565b61050d5760405162461bcd60e51b815260206004820152601660248201527529b2b73232b91034b9903737ba10309026b4b73a32b960511b60448201526064016103cb565b61051984848484610b80565b50505050565b6001600160a01b03851633148061053b575061053b853361030f565b6105a25760405162461bcd60e51b815260206004820152603260248201527f455243313135353a207472616e736665722063616c6c6572206973206e6f74206044820152711bdddb995c881b9bdc88185c1c1c9bdd995960721b60648201526084016103cb565b6105af8585858585610ccc565b5050505050565b6105c08282610e6b565b60008281526097602052604090206105d89082610b2b565b505050565b6105e78282610e91565b60008281526097602052604090206105d89082610f0b565b606081518351146106645760405162461bcd60e51b815260206004820152602960248201527f455243313135353a206163636f756e747320616e6420696473206c656e677468604482015268040dad2e6dac2e8c6d60bb1b60648201526084016103cb565b6000835167ffffffffffffffff811115610680576106806127f5565b6040519080825280602002602001820160405280156106a9578160200160208202803683370190505b50905060005b8451811015610721576106f48582815181106106cd576106cd6127df565b60200260200101518583815181106106e7576106e76127df565b6020026020010151610363565b828281518110610706576107066127df565b602090810291909101015261071a81612798565b90506106af565b509392505050565b6001600160a01b0383163314806107455750610745833361030f565b6107615760405162461bcd60e51b81526004016103cb90612489565b6105d8838383610f20565b6107967f9f2df0fed2c77648de5860a4cc508cd0818c85b8b8a1ab4ceeef8d981c8956a633610806565b6107db5760405162461bcd60e51b815260206004820152601660248201527529b2b73232b91034b9903737ba10309026b4b73a32b960511b60448201526064016103cb565b6105198484848461109f565b60008281526097602052604081206107ff9083611171565b9392505050565b60009182526065602090815260408084206001600160a01b0393909316845291905290205460ff1690565b336001600160a01b038316141561089c5760405162461bcd60e51b815260206004820152602960248201527f455243313135353a2073657474696e6720617070726f76616c20737461747573604482015268103337b91039b2b63360b91b60648201526084016103cb565b33600081815260ca602090815260408083206001600160a01b03871680855290835292819020805460ff191686151590811790915590519081529192917f17307eab39ab6107e8899845ad3d59bd9653f200f220920489ca2b5937696c31910160405180910390a35050565b60008181526097602052604081206103f99061117d565b6105e78282611187565b6001600160a01b0385163314806109455750610945853361030f565b6109615760405162461bcd60e51b81526004016103cb90612489565b6105af85858585856111ad565b6001600160a01b03831633148061098a575061098a833361030f565b6109a65760405162461bcd60e51b81526004016103cb90612489565b6105d88383836112ce565b600054610100900460ff16806109ca575060005460ff16155b6109e65760405162461bcd60e51b81526004016103cb90612517565b600054610100900460ff16158015610a08576000805461ffff19166101011790555b610a106113d4565b610a186113d4565b610a206113d4565b610a286113d4565b8015610a3a576000805461ff00191690555b50565b600054610100900460ff1680610a56575060005460ff16155b610a725760405162461bcd60e51b81526004016103cb90612517565b600054610100900460ff16158015610a94576000805461ffff19166101011790555b610a9c6113d4565b610aa46113d4565b610aad8261143e565b8015610abf576000805461ff00191690555b5050565b600054610100900460ff1680610adc575060005460ff16155b610af85760405162461bcd60e51b81526004016103cb90612517565b600054610100900460ff16158015610a10576000805461ffff1916610101179055610a186113d4565b610abf828261149e565b60006107ff836001600160a01b038416611524565b60006001600160e01b03198216636cdb3d1360e11b1480610b7157506001600160e01b031982166303a24d0760e21b145b806103f957506103f982611573565b6001600160a01b038416610ba65760405162461bcd60e51b81526004016103cb9061263a565b8151835114610bc75760405162461bcd60e51b81526004016103cb906125f2565b3360005b8451811015610c6457838181518110610be657610be66127df565b602002602001015160c96000878481518110610c0457610c046127df565b602002602001015181526020019081526020016000206000886001600160a01b03166001600160a01b031681526020019081526020016000206000828254610c4c919061269f565b90915550819050610c5c81612798565b915050610bcb565b50846001600160a01b031660006001600160a01b0316826001600160a01b03167f4a39dc06d4c0dbc64b70af90fd698a233a518aa5d07e595d983b8c0526c8f7fb8787604051610cb59291906123bc565b60405180910390a46105af81600087878787611598565b8151835114610ced5760405162461bcd60e51b81526004016103cb906125f2565b6001600160a01b038416610d135760405162461bcd60e51b81526004016103cb906124d2565b3360005b8451811015610dfd576000858281518110610d3457610d346127df565b602002602001015190506000858381518110610d5257610d526127df565b602090810291909101810151600084815260c9835260408082206001600160a01b038e168352909352919091205490915081811015610da35760405162461bcd60e51b81526004016103cb906125a8565b600083815260c9602090815260408083206001600160a01b038e8116855292528083208585039055908b16825281208054849290610de290849061269f565b9250508190555050505080610df690612798565b9050610d17565b50846001600160a01b0316866001600160a01b0316826001600160a01b03167f4a39dc06d4c0dbc64b70af90fd698a233a518aa5d07e595d983b8c0526c8f7fb8787604051610e4d9291906123bc565b60405180910390a4610e63818787878787611598565b505050505050565b600082815260656020526040902060010154610e878133611703565b6105d8838361149e565b6001600160a01b0381163314610f015760405162461bcd60e51b815260206004820152602f60248201527f416363657373436f6e74726f6c3a2063616e206f6e6c792072656e6f756e636560448201526e103937b632b9903337b91039b2b63360891b60648201526084016103cb565b610abf8282611767565b60006107ff836001600160a01b0384166117ce565b6001600160a01b038316610f465760405162461bcd60e51b81526004016103cb90612565565b8051825114610f675760405162461bcd60e51b81526004016103cb906125f2565b604080516020810190915260009081905233905b8351811015611040576000848281518110610f9857610f986127df565b602002602001015190506000848381518110610fb657610fb66127df565b602090810291909101810151600084815260c9835260408082206001600160a01b038c1683529093529190912054909150818110156110075760405162461bcd60e51b81526004016103cb90612445565b600092835260c9602090815260408085206001600160a01b038b168652909152909220910390558061103881612798565b915050610f7b565b5060006001600160a01b0316846001600160a01b0316826001600160a01b03167f4a39dc06d4c0dbc64b70af90fd698a233a518aa5d07e595d983b8c0526c8f7fb86866040516110919291906123bc565b60405180910390a450505050565b6001600160a01b0384166110c55760405162461bcd60e51b81526004016103cb9061263a565b336110df816000876110d6886118c1565b6105af886118c1565b600084815260c9602090815260408083206001600160a01b03891684529091528120805485929061111190849061269f565b909155505060408051858152602081018590526001600160a01b0380881692600092918516917fc3d58168c5ae7397731d063d5bbf3d657854427343f4c083240f7aacaa2d0f62910160405180910390a46105af8160008787878761190c565b60006107ff83836119d6565b60006103f9825490565b6000828152606560205260409020600101546111a38133611703565b6105d88383611767565b6001600160a01b0384166111d35760405162461bcd60e51b81526004016103cb906124d2565b336111e38187876110d6886118c1565b600084815260c9602090815260408083206001600160a01b038a168452909152902054838110156112265760405162461bcd60e51b81526004016103cb906125a8565b600085815260c9602090815260408083206001600160a01b038b811685529252808320878503905590881682528120805486929061126590849061269f565b909155505060408051868152602081018690526001600160a01b03808916928a821692918616917fc3d58168c5ae7397731d063d5bbf3d657854427343f4c083240f7aacaa2d0f62910160405180910390a46112c582888888888861190c565b50505050505050565b6001600160a01b0383166112f45760405162461bcd60e51b81526004016103cb90612565565b3361132481856000611305876118c1565b61130e876118c1565b5050604080516020810190915260009052505050565b600083815260c9602090815260408083206001600160a01b0388168452909152902054828110156113675760405162461bcd60e51b81526004016103cb90612445565b600084815260c9602090815260408083206001600160a01b03898116808652918452828520888703905582518981529384018890529092908616917fc3d58168c5ae7397731d063d5bbf3d657854427343f4c083240f7aacaa2d0f62910160405180910390a45050505050565b600054610100900460ff16806113ed575060005460ff16155b6114095760405162461bcd60e51b81526004016103cb90612517565b600054610100900460ff16158015610a28576000805461ffff19166101011790558015610a3a576000805461ff001916905550565b600054610100900460ff1680611457575060005460ff16155b6114735760405162461bcd60e51b81526004016103cb90612517565b600054610100900460ff16158015611495576000805461ffff19166101011790555b610aad82611a00565b6114a88282610806565b610abf5760008281526065602090815260408083206001600160a01b03851684529091529020805460ff191660011790556114e03390565b6001600160a01b0316816001600160a01b0316837f2f8788117e7eff1d82e926ec794901d17c78024a50270940304540a733656f0d60405160405180910390a45050565b600081815260018301602052604081205461156b575081546001818101845560008481526020808220909301849055845484825282860190935260409020919091556103f9565b5060006103f9565b60006001600160e01b03198216635a05180f60e01b14806103f957506103f982611a13565b6001600160a01b0384163b15610e635760405163bc197c8160e01b81526001600160a01b0385169063bc197c81906115dc9089908990889088908890600401612306565b602060405180830381600087803b1580156115f657600080fd5b505af1925050508015611626575060408051601f3d908101601f191682019092526116239181019061220d565b60015b6116d35761163261280b565b806308c379a0141561166c5750611647612827565b80611652575061166e565b8060405162461bcd60e51b81526004016103cb91906123ea565b505b60405162461bcd60e51b815260206004820152603460248201527f455243313135353a207472616e7366657220746f206e6f6e20455243313135356044820152732932b1b2b4bb32b91034b6b83632b6b2b73a32b960611b60648201526084016103cb565b6001600160e01b0319811663bc197c8160e01b146112c55760405162461bcd60e51b81526004016103cb906123fd565b61170d8282610806565b610abf57611725816001600160a01b03166014611a48565b611730836020611a48565b604051602001611741929190612291565b60408051601f198184030181529082905262461bcd60e51b82526103cb916004016123ea565b6117718282610806565b15610abf5760008281526065602090815260408083206001600160a01b0385168085529252808320805460ff1916905551339285917ff6391f5c32d9c69d2a47ea670b442974b53935d1edc7fd64eb21e047a839171b9190a45050565b600081815260018301602052604081205480156118b75760006117f26001836126d6565b8554909150600090611806906001906126d6565b905081811461186b576000866000018281548110611826576118266127df565b9060005260206000200154905080876000018481548110611849576118496127df565b6000918252602080832090910192909255918252600188019052604090208390555b855486908061187c5761187c6127c9565b6001900381819060005260206000200160009055905585600101600086815260200190815260200160002060009055600193505050506103f9565b60009150506103f9565b604080516001808252818301909252606091600091906020808301908036833701905050905082816000815181106118fb576118fb6127df565b602090810291909101015292915050565b6001600160a01b0384163b15610e635760405163f23a6e6160e01b81526001600160a01b0385169063f23a6e61906119509089908990889088908890600401612364565b602060405180830381600087803b15801561196a57600080fd5b505af192505050801561199a575060408051601f3d908101601f191682019092526119979181019061220d565b60015b6119a65761163261280b565b6001600160e01b0319811663f23a6e6160e01b146112c55760405162461bcd60e51b81526004016103cb906123fd565b60008260000182815481106119ed576119ed6127df565b9060005260206000200154905092915050565b8051610abf9060cb906020840190611be4565b60006001600160e01b03198216637965db0b60e01b14806103f957506301ffc9a760e01b6001600160e01b03198316146103f9565b60606000611a578360026126b7565b611a6290600261269f565b67ffffffffffffffff811115611a7a57611a7a6127f5565b6040519080825280601f01601f191660200182016040528015611aa4576020820181803683370190505b509050600360fc1b81600081518110611abf57611abf6127df565b60200101906001600160f81b031916908160001a905350600f60fb1b81600181518110611aee57611aee6127df565b60200101906001600160f81b031916908160001a9053506000611b128460026126b7565b611b1d90600161269f565b90505b6001811115611b95576f181899199a1a9b1b9c1cb0b131b232b360811b85600f1660108110611b5157611b516127df565b1a60f81b828281518110611b6757611b676127df565b60200101906001600160f81b031916908160001a90535060049490941c93611b8e81612719565b9050611b20565b5083156107ff5760405162461bcd60e51b815260206004820181905260248201527f537472696e67733a20686578206c656e67746820696e73756666696369656e7460448201526064016103cb565b828054611bf090612730565b90600052602060002090601f016020900481019282611c125760008555611c58565b82601f10611c2b57805160ff1916838001178555611c58565b82800160010185558215611c58579182015b82811115611c58578251825591602001919060010190611c3d565b50611c64929150611c68565b5090565b5b80821115611c645760008155600101611c69565b80356001600160a01b0381168114611c9457600080fd5b919050565b600082601f830112611caa57600080fd5b81356020611cb78261267b565b604051611cc4828261276b565b8381528281019150858301600585901b87018401881015611ce457600080fd5b60005b85811015611d0357813584529284019290840190600101611ce7565b5090979650505050505050565b600082601f830112611d2157600080fd5b813567ffffffffffffffff811115611d3b57611d3b6127f5565b604051611d52601f8301601f19166020018261276b565b818152846020838601011115611d6757600080fd5b816020850160208301376000918101602001919091529392505050565b60008060408385031215611d9757600080fd5b611da083611c7d565b9150611dae60208401611c7d565b90509250929050565b600080600080600060a08688031215611dcf57600080fd5b611dd886611c7d565b9450611de660208701611c7d565b9350604086013567ffffffffffffffff80821115611e0357600080fd5b611e0f89838a01611c99565b94506060880135915080821115611e2557600080fd5b611e3189838a01611c99565b93506080880135915080821115611e4757600080fd5b50611e5488828901611d10565b9150509295509295909350565b600080600080600060a08688031215611e7957600080fd5b611e8286611c7d565b9450611e9060208701611c7d565b93506040860135925060608601359150608086013567ffffffffffffffff811115611eba57600080fd5b611e5488828901611d10565b600080600060608486031215611edb57600080fd5b611ee484611c7d565b9250602084013567ffffffffffffffff80821115611f0157600080fd5b611f0d87838801611c99565b93506040860135915080821115611f2357600080fd5b50611f3086828701611c99565b9150509250925092565b60008060008060808587031215611f5057600080fd5b611f5985611c7d565b9350602085013567ffffffffffffffff80821115611f7657600080fd5b611f8288838901611c99565b94506040870135915080821115611f9857600080fd5b611fa488838901611c99565b93506060870135915080821115611fba57600080fd5b50611fc787828801611d10565b91505092959194509250565b60008060408385031215611fe657600080fd5b611fef83611c7d565b91506020830135801515811461200457600080fd5b809150509250929050565b6000806040838503121561202257600080fd5b61202b83611c7d565b946020939093013593505050565b60008060006060848603121561204e57600080fd5b61205784611c7d565b95602085013595506040909401359392505050565b6000806000806080858703121561208257600080fd5b61208b85611c7d565b93506020850135925060408501359150606085013567ffffffffffffffff8111156120b557600080fd5b611fc787828801611d10565b600080604083850312156120d457600080fd5b823567ffffffffffffffff808211156120ec57600080fd5b818501915085601f83011261210057600080fd5b8135602061210d8261267b565b60405161211a828261276b565b8381528281019150858301600585901b870184018b101561213a57600080fd5b600096505b848710156121645761215081611c7d565b83526001969096019591830191830161213f565b509650508601359250508082111561217b57600080fd5b5061218885828601611c99565b9150509250929050565b6000602082840312156121a457600080fd5b5035919050565b600080604083850312156121be57600080fd5b82359150611dae60208401611c7d565b600080604083850312156121e157600080fd5b50508035926020909101359150565b60006020828403121561220257600080fd5b81356107ff816128b1565b60006020828403121561221f57600080fd5b81516107ff816128b1565b600081518084526020808501945080840160005b8381101561225a5781518752958201959082019060010161223e565b509495945050505050565b6000815180845261227d8160208601602086016126ed565b601f01601f19169290920160200192915050565b7f416363657373436f6e74726f6c3a206163636f756e74200000000000000000008152600083516122c98160178501602088016126ed565b7001034b99036b4b9b9b4b733903937b6329607d1b60179184019182015283516122fa8160288401602088016126ed565b01602801949350505050565b6001600160a01b0386811682528516602082015260a0604082018190526000906123329083018661222a565b8281036060840152612344818661222a565b905082810360808401526123588185612265565b98975050505050505050565b6001600160a01b03868116825285166020820152604081018490526060810183905260a06080820181905260009061239e90830184612265565b979650505050505050565b6020815260006107ff602083018461222a565b6040815260006123cf604083018561222a565b82810360208401526123e1818561222a565b95945050505050565b6020815260006107ff6020830184612265565b60208082526028908201527f455243313135353a204552433131353552656365697665722072656a656374656040820152676420746f6b656e7360c01b606082015260800190565b60208082526024908201527f455243313135353a206275726e20616d6f756e7420657863656564732062616c604082015263616e636560e01b606082015260800190565b60208082526029908201527f455243313135353a2063616c6c6572206973206e6f74206f776e6572206e6f7260408201526808185c1c1c9bdd995960ba1b606082015260800190565b60208082526025908201527f455243313135353a207472616e7366657220746f20746865207a65726f206164604082015264647265737360d81b606082015260800190565b6020808252602e908201527f496e697469616c697a61626c653a20636f6e747261637420697320616c72656160408201526d191e481a5b9a5d1a585b1a5e995960921b606082015260800190565b60208082526023908201527f455243313135353a206275726e2066726f6d20746865207a65726f206164647260408201526265737360e81b606082015260800190565b6020808252602a908201527f455243313135353a20696e73756666696369656e742062616c616e636520666f60408201526939103a3930b739b332b960b11b606082015260800190565b60208082526028908201527f455243313135353a2069647320616e6420616d6f756e7473206c656e677468206040820152670dad2e6dac2e8c6d60c31b606082015260800190565b60208082526021908201527f455243313135353a206d696e7420746f20746865207a65726f206164647265736040820152607360f81b606082015260800190565b600067ffffffffffffffff821115612695576126956127f5565b5060051b60200190565b600082198211156126b2576126b26127b3565b500190565b60008160001904831182151516156126d1576126d16127b3565b500290565b6000828210156126e8576126e86127b3565b500390565b60005b838110156127085781810151838201526020016126f0565b838111156105195750506000910152565b600081612728576127286127b3565b506000190190565b600181811c9082168061274457607f821691505b6020821081141561276557634e487b7160e01b600052602260045260246000fd5b50919050565b601f8201601f1916810167ffffffffffffffff81118282101715612791576127916127f5565b6040525050565b60006000198214156127ac576127ac6127b3565b5060010190565b634e487b7160e01b600052601160045260246000fd5b634e487b7160e01b600052603160045260246000fd5b634e487b7160e01b600052603260045260246000fd5b634e487b7160e01b600052604160045260246000fd5b600060033d11156128245760046000803e5060005160e01c5b90565b600060443d10156128355790565b6040516003193d81016004833e81513d67ffffffffffffffff816024840111818411171561286557505050505090565b828501915081518181111561287d5750505050505090565b843d87010160208285010111156128975750505050505090565b6128a66020828601018761276b565b509095945050505050565b6001600160e01b031981168114610a3a57600080fdfea26469706673582212203af136371537fc7cf457f2ca16bb56edc0167ff92b893dc4aada81a5112eb9c564736f6c63430008060033496e697469616c697a61626c653a20636f6e747261637420697320616c7265619f2df0fed2c77648de5860a4cc508cd0818c85b8b8a1ab4ceeef8d981c8956a67164765a3c8bd2513bdfa0c90f1bee9606e920fbf2c9071f310263fbd818684ba26469706673582212207d5228434b4e59074bd0918310cf2e4b29ca68ff561a0ccbe98257181df71c1064736f6c63430008060033",
  "linkReferences": {},
  "deployedLinkReferences": {}
}